{
  "contractName": "NFTContract",
  "abi": [
    {
      "inputs": [],
      "stateMutability": "nonpayable",
      "type": "constructor"
    },
    {
      "anonymous": false,
      "inputs": [
        {
          "indexed": true,
          "internalType": "address",
          "name": "owner",
          "type": "address"
        },
        {
          "indexed": true,
          "internalType": "address",
          "name": "approved",
          "type": "address"
        },
        {
          "indexed": true,
          "internalType": "uint256",
          "name": "tokenId",
          "type": "uint256"
        }
      ],
      "name": "Approval",
      "type": "event"
    },
    {
      "anonymous": false,
      "inputs": [
        {
          "indexed": true,
          "internalType": "address",
          "name": "owner",
          "type": "address"
        },
        {
          "indexed": true,
          "internalType": "address",
          "name": "operator",
          "type": "address"
        },
        {
          "indexed": false,
          "internalType": "bool",
          "name": "approved",
          "type": "bool"
        }
      ],
      "name": "ApprovalForAll",
      "type": "event"
    },
    {
      "anonymous": false,
      "inputs": [
        {
          "indexed": true,
          "internalType": "address",
          "name": "from",
          "type": "address"
        },
        {
          "indexed": true,
          "internalType": "address",
          "name": "to",
          "type": "address"
        },
        {
          "indexed": true,
          "internalType": "uint256",
          "name": "tokenId",
          "type": "uint256"
        }
      ],
      "name": "Transfer",
      "type": "event"
    },
    {
      "inputs": [
        {
          "internalType": "address",
          "name": "to",
          "type": "address"
        },
        {
          "internalType": "uint256",
          "name": "tokenId",
          "type": "uint256"
        }
      ],
      "name": "approve",
      "outputs": [],
      "stateMutability": "nonpayable",
      "type": "function"
    },
    {
      "inputs": [
        {
          "internalType": "address",
          "name": "owner",
          "type": "address"
        }
      ],
      "name": "balanceOf",
      "outputs": [
        {
          "internalType": "uint256",
          "name": "",
          "type": "uint256"
        }
      ],
      "stateMutability": "view",
      "type": "function",
      "constant": true
    },
    {
      "inputs": [
        {
          "internalType": "uint256",
          "name": "tokenId",
          "type": "uint256"
        }
      ],
      "name": "getApproved",
      "outputs": [
        {
          "internalType": "address",
          "name": "",
          "type": "address"
        }
      ],
      "stateMutability": "view",
      "type": "function",
      "constant": true
    },
    {
      "inputs": [
        {
          "internalType": "address",
          "name": "owner",
          "type": "address"
        },
        {
          "internalType": "address",
          "name": "operator",
          "type": "address"
        }
      ],
      "name": "isApprovedForAll",
      "outputs": [
        {
          "internalType": "bool",
          "name": "",
          "type": "bool"
        }
      ],
      "stateMutability": "view",
      "type": "function",
      "constant": true
    },
    {
      "inputs": [],
      "name": "name",
      "outputs": [
        {
          "internalType": "string",
          "name": "",
          "type": "string"
        }
      ],
      "stateMutability": "view",
      "type": "function",
      "constant": true
    },
    {
      "inputs": [
        {
          "internalType": "uint256",
          "name": "tokenId",
          "type": "uint256"
        }
      ],
      "name": "ownerOf",
      "outputs": [
        {
          "internalType": "address",
          "name": "",
          "type": "address"
        }
      ],
      "stateMutability": "view",
      "type": "function",
      "constant": true
    },
    {
      "inputs": [
        {
          "internalType": "address",
          "name": "from",
          "type": "address"
        },
        {
          "internalType": "address",
          "name": "to",
          "type": "address"
        },
        {
          "internalType": "uint256",
          "name": "tokenId",
          "type": "uint256"
        }
      ],
      "name": "safeTransferFrom",
      "outputs": [],
      "stateMutability": "nonpayable",
      "type": "function"
    },
    {
      "inputs": [
        {
          "internalType": "address",
          "name": "from",
          "type": "address"
        },
        {
          "internalType": "address",
          "name": "to",
          "type": "address"
        },
        {
          "internalType": "uint256",
          "name": "tokenId",
          "type": "uint256"
        },
        {
          "internalType": "bytes",
          "name": "data",
          "type": "bytes"
        }
      ],
      "name": "safeTransferFrom",
      "outputs": [],
      "stateMutability": "nonpayable",
      "type": "function"
    },
    {
      "inputs": [
        {
          "internalType": "address",
          "name": "operator",
          "type": "address"
        },
        {
          "internalType": "bool",
          "name": "approved",
          "type": "bool"
        }
      ],
      "name": "setApprovalForAll",
      "outputs": [],
      "stateMutability": "nonpayable",
      "type": "function"
    },
    {
      "inputs": [
        {
          "internalType": "bytes4",
          "name": "interfaceId",
          "type": "bytes4"
        }
      ],
      "name": "supportsInterface",
      "outputs": [
        {
          "internalType": "bool",
          "name": "",
          "type": "bool"
        }
      ],
      "stateMutability": "view",
      "type": "function",
      "constant": true
    },
    {
      "inputs": [],
      "name": "symbol",
      "outputs": [
        {
          "internalType": "string",
          "name": "",
          "type": "string"
        }
      ],
      "stateMutability": "view",
      "type": "function",
      "constant": true
    },
    {
      "inputs": [
        {
          "internalType": "uint256",
          "name": "tokenId",
          "type": "uint256"
        }
      ],
      "name": "tokenURI",
      "outputs": [
        {
          "internalType": "string",
          "name": "",
          "type": "string"
        }
      ],
      "stateMutability": "view",
      "type": "function",
      "constant": true
    },
    {
      "inputs": [
        {
          "internalType": "address",
          "name": "from",
          "type": "address"
        },
        {
          "internalType": "address",
          "name": "to",
          "type": "address"
        },
        {
          "internalType": "uint256",
          "name": "tokenId",
          "type": "uint256"
        }
      ],
      "name": "transferFrom",
      "outputs": [],
      "stateMutability": "nonpayable",
      "type": "function"
    },
    {
      "inputs": [
        {
          "internalType": "string",
          "name": "_uri",
          "type": "string"
        }
      ],
      "name": "mint",
      "outputs": [],
      "stateMutability": "nonpayable",
      "type": "function"
    },
    {
      "inputs": [
        {
          "internalType": "uint256",
          "name": "_tokenId",
          "type": "uint256"
        }
      ],
      "name": "burn",
      "outputs": [],
      "stateMutability": "nonpayable",
      "type": "function"
    }
  ],
  "bytecode": "0x60806040523480156200001157600080fd5b506040518060400160405280600581526020017f4d794e46540000000000000000000000000000000000000000000000000000008152506040518060400160405280600381526020017f4e4654000000000000000000000000000000000000000000000000000000000081525081600090816200008f919062000324565b508060019081620000a1919062000324565b5050506200040b565b600081519050919050565b7f4e487b7100000000000000000000000000000000000000000000000000000000600052604160045260246000fd5b7f4e487b7100000000000000000000000000000000000000000000000000000000600052602260045260246000fd5b600060028204905060018216806200012c57607f821691505b602082108103620001425762000141620000e4565b5b50919050565b60008190508160005260206000209050919050565b60006020601f8301049050919050565b600082821b905092915050565b600060088302620001ac7fffffffffffffffffffffffffffffffffffffffffffffffffffffffffffffffff826200016d565b620001b886836200016d565b95508019841693508086168417925050509392505050565b6000819050919050565b6000819050919050565b600062000205620001ff620001f984620001d0565b620001da565b620001d0565b9050919050565b6000819050919050565b6200022183620001e4565b6200023962000230826200020c565b8484546200017a565b825550505050565b600090565b6200025062000241565b6200025d81848462000216565b505050565b5b8181101562000285576200027960008262000246565b60018101905062000263565b5050565b601f821115620002d4576200029e8162000148565b620002a9846200015d565b81016020851015620002b9578190505b620002d1620002c8856200015d565b83018262000262565b50505b505050565b600082821c905092915050565b6000620002f960001984600802620002d9565b1980831691505092915050565b6000620003148383620002e6565b9150826002028217905092915050565b6200032f82620000aa565b67ffffffffffffffff8111156200034b576200034a620000b5565b5b62000357825462000113565b6200036482828562000289565b600060209050601f8311600181146200039c576000841562000387578287015190505b62000393858262000306565b86555062000403565b601f198416620003ac8662000148565b60005b82811015620003d657848901518255600182019150602085019450602081019050620003af565b86831015620003f65784890151620003f2601f891682620002e6565b8355505b6001600288020188555050505b505050505050565b612cea806200041b6000396000f3fe608060405234801561001057600080fd5b50600436106100f55760003560e01c80636352211e11610097578063b88d4fde11610066578063b88d4fde14610282578063c87b56dd1461029e578063d85d3d27146102ce578063e985e9c5146102ea576100f5565b80636352211e146101e857806370a082311461021857806395d89b4114610248578063a22cb46514610266576100f5565b8063095ea7b3116100d3578063095ea7b31461017857806323b872dd1461019457806342842e0e146101b057806342966c68146101cc576100f5565b806301ffc9a7146100fa57806306fdde031461012a578063081812fc14610148575b600080fd5b610114600480360381019061010f91906119e5565b61031a565b6040516101219190611a2d565b60405180910390f35b6101326103fc565b60405161013f9190611ae1565b60405180910390f35b610162600480360381019061015d9190611b39565b61048e565b60405161016f9190611ba7565b60405180910390f35b610192600480360381019061018d9190611bee565b6104d4565b005b6101ae60048036038101906101a99190611c2e565b6105eb565b005b6101ca60048036038101906101c59190611c2e565b61064b565b005b6101e660048036038101906101e19190611b39565b61066b565b005b61020260048036038101906101fd9190611b39565b6106bf565b60405161020f9190611ba7565b60405180910390f35b610232600480360381019061022d9190611c81565b610770565b60405161023f9190611cbd565b60405180910390f35b610250610827565b60405161025d9190611ae1565b60405180910390f35b610280600480360381019061027b9190611d04565b6108b9565b005b61029c60048036038101906102979190611e79565b6108cf565b005b6102b860048036038101906102b39190611b39565b610931565b6040516102c59190611ae1565b60405180910390f35b6102e860048036038101906102e39190611f9d565b610a43565b005b61030460048036038101906102ff9190611fe6565b610a76565b6040516103119190611a2d565b60405180910390f35b60007f80ac58cd000000000000000000000000000000000000000000000000000000007bffffffffffffffffffffffffffffffffffffffffffffffffffffffff1916827bffffffffffffffffffffffffffffffffffffffffffffffffffffffff191614806103e557507f5b5e139f000000000000000000000000000000000000000000000000000000007bffffffffffffffffffffffffffffffffffffffffffffffffffffffff1916827bffffffffffffffffffffffffffffffffffffffffffffffffffffffff1916145b806103f557506103f482610b0a565b5b9050919050565b60606000805461040b90612055565b80601f016020809104026020016040519081016040528092919081815260200182805461043790612055565b80156104845780601f1061045957610100808354040283529160200191610484565b820191906000526020600020905b81548152906001019060200180831161046757829003601f168201915b5050505050905090565b600061049982610b74565b6004600083815260200190815260200160002060009054906101000a900473ffffffffffffffffffffffffffffffffffffffff169050919050565b60006104df826106bf565b90508073ffffffffffffffffffffffffffffffffffffffff168373ffffffffffffffffffffffffffffffffffffffff160361054f576040517f08c379a0000000000000000000000000000000000000000000000000000000008152600401610546906120f8565b60405180910390fd5b8073ffffffffffffffffffffffffffffffffffffffff1661056e610bbf565b73ffffffffffffffffffffffffffffffffffffffff16148061059d575061059c81610597610bbf565b610a76565b5b6105dc576040517f08c379a00000000000000000000000000000000000000000000000000000000081526004016105d39061218a565b60405180910390fd5b6105e68383610bc7565b505050565b6105fc6105f6610bbf565b82610c80565b61063b576040517f08c379a00000000000000000000000000000000000000000000000000000000081526004016106329061221c565b60405180910390fd5b610646838383610d15565b505050565b610666838383604051806020016040528060008152506108cf565b505050565b61067481610f7b565b6106b3576040517f08c379a00000000000000000000000000000000000000000000000000000000081526004016106aa90612288565b60405180910390fd5b6106bc81610fe7565b50565b6000806002600084815260200190815260200160002060009054906101000a900473ffffffffffffffffffffffffffffffffffffffff169050600073ffffffffffffffffffffffffffffffffffffffff168173ffffffffffffffffffffffffffffffffffffffff1603610767576040517f08c379a000000000000000000000000000000000000000000000000000000000815260040161075e906122f4565b60405180910390fd5b80915050919050565b60008073ffffffffffffffffffffffffffffffffffffffff168273ffffffffffffffffffffffffffffffffffffffff16036107e0576040517f08c379a00000000000000000000000000000000000000000000000000000000081526004016107d790612386565b60405180910390fd5b600360008373ffffffffffffffffffffffffffffffffffffffff1673ffffffffffffffffffffffffffffffffffffffff168152602001908152602001600020549050919050565b60606001805461083690612055565b80601f016020809104026020016040519081016040528092919081815260200182805461086290612055565b80156108af5780601f10610884576101008083540402835291602001916108af565b820191906000526020600020905b81548152906001019060200180831161089257829003601f168201915b5050505050905090565b6108cb6108c4610bbf565b838361103a565b5050565b6108e06108da610bbf565b83610c80565b61091f576040517f08c379a00000000000000000000000000000000000000000000000000000000081526004016109169061221c565b60405180910390fd5b61092b848484846111a6565b50505050565b606061093c82610b74565b600060066000848152602001908152602001600020805461095c90612055565b80601f016020809104026020016040519081016040528092919081815260200182805461098890612055565b80156109d55780601f106109aa576101008083540402835291602001916109d5565b820191906000526020600020905b8154815290600101906020018083116109b857829003601f168201915b5050505050905060006109e6611202565b905060008151036109fb578192505050610a3e565b600082511115610a30578082604051602001610a189291906123e2565b60405160208183030381529060405292505050610a3e565b610a3984611219565b925050505b919050565b610a5633610a516007611281565b61128f565b610a69610a636007611281565b82611468565b610a7360076114d5565b50565b6000600560008473ffffffffffffffffffffffffffffffffffffffff1673ffffffffffffffffffffffffffffffffffffffff16815260200190815260200160002060008373ffffffffffffffffffffffffffffffffffffffff1673ffffffffffffffffffffffffffffffffffffffff16815260200190815260200160002060009054906101000a900460ff16905092915050565b60007f01ffc9a7000000000000000000000000000000000000000000000000000000007bffffffffffffffffffffffffffffffffffffffffffffffffffffffff1916827bffffffffffffffffffffffffffffffffffffffffffffffffffffffff1916149050919050565b610b7d81610f7b565b610bbc576040517f08c379a0000000000000000000000000000000000000000000000000000000008152600401610bb3906122f4565b60405180910390fd5b50565b600033905090565b816004600083815260200190815260200160002060006101000a81548173ffffffffffffffffffffffffffffffffffffffff021916908373ffffffffffffffffffffffffffffffffffffffff160217905550808273ffffffffffffffffffffffffffffffffffffffff16610c3a836106bf565b73ffffffffffffffffffffffffffffffffffffffff167f8c5be1e5ebec7d5bd14f71427d1e84f3dd0314c0f7b2291e5b200ac8c7c3b92560405160405180910390a45050565b600080610c8c836106bf565b90508073ffffffffffffffffffffffffffffffffffffffff168473ffffffffffffffffffffffffffffffffffffffff161480610cce5750610ccd8185610a76565b5b80610d0c57508373ffffffffffffffffffffffffffffffffffffffff16610cf48461048e565b73ffffffffffffffffffffffffffffffffffffffff16145b91505092915050565b8273ffffffffffffffffffffffffffffffffffffffff16610d35826106bf565b73ffffffffffffffffffffffffffffffffffffffff1614610d8b576040517f08c379a0000000000000000000000000000000000000000000000000000000008152600401610d8290612478565b60405180910390fd5b600073ffffffffffffffffffffffffffffffffffffffff168273ffffffffffffffffffffffffffffffffffffffff1603610dfa576040517f08c379a0000000000000000000000000000000000000000000000000000000008152600401610df19061250a565b60405180910390fd5b610e058383836114eb565b610e10600082610bc7565b6001600360008573ffffffffffffffffffffffffffffffffffffffff1673ffffffffffffffffffffffffffffffffffffffff1681526020019081526020016000206000828254610e609190612559565b925050819055506001600360008473ffffffffffffffffffffffffffffffffffffffff1673ffffffffffffffffffffffffffffffffffffffff1681526020019081526020016000206000828254610eb7919061258d565b92505081905550816002600083815260200190815260200160002060006101000a81548173ffffffffffffffffffffffffffffffffffffffff021916908373ffffffffffffffffffffffffffffffffffffffff160217905550808273ffffffffffffffffffffffffffffffffffffffff168473ffffffffffffffffffffffffffffffffffffffff167fddf252ad1be2c89b69c2b068fc378daa952ba7f163c4a11628f55a4df523b3ef60405160405180910390a4610f768383836114f0565b505050565b60008073ffffffffffffffffffffffffffffffffffffffff166002600084815260200190815260200160002060009054906101000a900473ffffffffffffffffffffffffffffffffffffffff1673ffffffffffffffffffffffffffffffffffffffff1614159050919050565b610ff0816114f5565b600060066000838152602001908152602001600020805461101090612055565b90501461103757600660008281526020019081526020016000206000611036919061191c565b5b50565b8173ffffffffffffffffffffffffffffffffffffffff168373ffffffffffffffffffffffffffffffffffffffff16036110a8576040517f08c379a000000000000000000000000000000000000000000000000000000000815260040161109f9061262f565b60405180910390fd5b80600560008573ffffffffffffffffffffffffffffffffffffffff1673ffffffffffffffffffffffffffffffffffffffff16815260200190815260200160002060008473ffffffffffffffffffffffffffffffffffffffff1673ffffffffffffffffffffffffffffffffffffffff16815260200190815260200160002060006101000a81548160ff0219169083151502179055508173ffffffffffffffffffffffffffffffffffffffff168373ffffffffffffffffffffffffffffffffffffffff167f17307eab39ab6107e8899845ad3d59bd9653f200f220920489ca2b5937696c31836040516111999190611a2d565b60405180910390a3505050565b6111b1848484610d15565b6111bd84848484611612565b6111fc576040517f08c379a00000000000000000000000000000000000000000000000000000000081526004016111f3906126c1565b60405180910390fd5b50505050565b606060405180602001604052806000815250905090565b606061122482610b74565b600061122e611202565b9050600081511161124e5760405180602001604052806000815250611279565b8061125884611799565b6040516020016112699291906123e2565b6040516020818303038152906040525b915050919050565b600081600001549050919050565b600073ffffffffffffffffffffffffffffffffffffffff168273ffffffffffffffffffffffffffffffffffffffff16036112fe576040517f08c379a00000000000000000000000000000000000000000000000000000000081526004016112f59061272d565b60405180910390fd5b61130781610f7b565b15611347576040517f08c379a000000000000000000000000000000000000000000000000000000000815260040161133e90612799565b60405180910390fd5b611353600083836114eb565b6001600360008473ffffffffffffffffffffffffffffffffffffffff1673ffffffffffffffffffffffffffffffffffffffff16815260200190815260200160002060008282546113a3919061258d565b92505081905550816002600083815260200190815260200160002060006101000a81548173ffffffffffffffffffffffffffffffffffffffff021916908373ffffffffffffffffffffffffffffffffffffffff160217905550808273ffffffffffffffffffffffffffffffffffffffff16600073ffffffffffffffffffffffffffffffffffffffff167fddf252ad1be2c89b69c2b068fc378daa952ba7f163c4a11628f55a4df523b3ef60405160405180910390a4611464600083836114f0565b5050565b61147182610f7b565b6114b0576040517f08c379a00000000000000000000000000000000000000000000000000000000081526004016114a79061282b565b60405180910390fd5b806006600084815260200190815260200160002090816114d091906129f7565b505050565b6001816000016000828254019250508190555050565b505050565b505050565b6000611500826106bf565b905061150e816000846114eb565b611519600083610bc7565b6001600360008373ffffffffffffffffffffffffffffffffffffffff1673ffffffffffffffffffffffffffffffffffffffff16815260200190815260200160002060008282546115699190612559565b925050819055506002600083815260200190815260200160002060006101000a81549073ffffffffffffffffffffffffffffffffffffffff021916905581600073ffffffffffffffffffffffffffffffffffffffff168273ffffffffffffffffffffffffffffffffffffffff167fddf252ad1be2c89b69c2b068fc378daa952ba7f163c4a11628f55a4df523b3ef60405160405180910390a461160e816000846114f0565b5050565b60006116338473ffffffffffffffffffffffffffffffffffffffff166118f9565b1561178c578373ffffffffffffffffffffffffffffffffffffffff1663150b7a0261165c610bbf565b8786866040518563ffffffff1660e01b815260040161167e9493929190612b1e565b6020604051808303816000875af19250505080156116ba57506040513d601f19601f820116820180604052508101906116b79190612b7f565b60015b61173c573d80600081146116ea576040519150601f19603f3d011682016040523d82523d6000602084013e6116ef565b606091505b506000815103611734576040517f08c379a000000000000000000000000000000000000000000000000000000000815260040161172b906126c1565b60405180910390fd5b805181602001fd5b63150b7a0260e01b7bffffffffffffffffffffffffffffffffffffffffffffffffffffffff1916817bffffffffffffffffffffffffffffffffffffffffffffffffffffffff191614915050611791565b600190505b949350505050565b6060600082036117e0576040518060400160405280600181526020017f300000000000000000000000000000000000000000000000000000000000000081525090506118f4565b600082905060005b600082146118125780806117fb90612bac565b915050600a8261180b9190612c23565b91506117e8565b60008167ffffffffffffffff81111561182e5761182d611d4e565b5b6040519080825280601f01601f1916602001820160405280156118605781602001600182028036833780820191505090505b5090505b600085146118ed576001826118799190612559565b9150600a856118889190612c54565b6030611894919061258d565b60f81b8183815181106118aa576118a9612c85565b5b60200101907effffffffffffffffffffffffffffffffffffffffffffffffffffffffffffff1916908160001a905350600a856118e69190612c23565b9450611864565b8093505050505b919050565b6000808273ffffffffffffffffffffffffffffffffffffffff163b119050919050565b50805461192890612055565b6000825580601f1061193a5750611959565b601f016020900490600052602060002090810190611958919061195c565b5b50565b5b8082111561197557600081600090555060010161195d565b5090565b6000604051905090565b600080fd5b600080fd5b60007fffffffff0000000000000000000000000000000000000000000000000000000082169050919050565b6119c28161198d565b81146119cd57600080fd5b50565b6000813590506119df816119b9565b92915050565b6000602082840312156119fb576119fa611983565b5b6000611a09848285016119d0565b91505092915050565b60008115159050919050565b611a2781611a12565b82525050565b6000602082019050611a426000830184611a1e565b92915050565b600081519050919050565b600082825260208201905092915050565b60005b83811015611a82578082015181840152602081019050611a67565b83811115611a91576000848401525b50505050565b6000601f19601f8301169050919050565b6000611ab382611a48565b611abd8185611a53565b9350611acd818560208601611a64565b611ad681611a97565b840191505092915050565b60006020820190508181036000830152611afb8184611aa8565b905092915050565b6000819050919050565b611b1681611b03565b8114611b2157600080fd5b50565b600081359050611b3381611b0d565b92915050565b600060208284031215611b4f57611b4e611983565b5b6000611b5d84828501611b24565b91505092915050565b600073ffffffffffffffffffffffffffffffffffffffff82169050919050565b6000611b9182611b66565b9050919050565b611ba181611b86565b82525050565b6000602082019050611bbc6000830184611b98565b92915050565b611bcb81611b86565b8114611bd657600080fd5b50565b600081359050611be881611bc2565b92915050565b60008060408385031215611c0557611c04611983565b5b6000611c1385828601611bd9565b9250506020611c2485828601611b24565b9150509250929050565b600080600060608486031215611c4757611c46611983565b5b6000611c5586828701611bd9565b9350506020611c6686828701611bd9565b9250506040611c7786828701611b24565b9150509250925092565b600060208284031215611c9757611c96611983565b5b6000611ca584828501611bd9565b91505092915050565b611cb781611b03565b82525050565b6000602082019050611cd26000830184611cae565b92915050565b611ce181611a12565b8114611cec57600080fd5b50565b600081359050611cfe81611cd8565b92915050565b60008060408385031215611d1b57611d1a611983565b5b6000611d2985828601611bd9565b9250506020611d3a85828601611cef565b9150509250929050565b600080fd5b600080fd5b7f4e487b7100000000000000000000000000000000000000000000000000000000600052604160045260246000fd5b611d8682611a97565b810181811067ffffffffffffffff82111715611da557611da4611d4e565b5b80604052505050565b6000611db8611979565b9050611dc48282611d7d565b919050565b600067ffffffffffffffff821115611de457611de3611d4e565b5b611ded82611a97565b9050602081019050919050565b82818337600083830152505050565b6000611e1c611e1784611dc9565b611dae565b905082815260208101848484011115611e3857611e37611d49565b5b611e43848285611dfa565b509392505050565b600082601f830112611e6057611e5f611d44565b5b8135611e70848260208601611e09565b91505092915050565b60008060008060808587031215611e9357611e92611983565b5b6000611ea187828801611bd9565b9450506020611eb287828801611bd9565b9350506040611ec387828801611b24565b925050606085013567ffffffffffffffff811115611ee457611ee3611988565b5b611ef087828801611e4b565b91505092959194509250565b600067ffffffffffffffff821115611f1757611f16611d4e565b5b611f2082611a97565b9050602081019050919050565b6000611f40611f3b84611efc565b611dae565b905082815260208101848484011115611f5c57611f5b611d49565b5b611f67848285611dfa565b509392505050565b600082601f830112611f8457611f83611d44565b5b8135611f94848260208601611f2d565b91505092915050565b600060208284031215611fb357611fb2611983565b5b600082013567ffffffffffffffff811115611fd157611fd0611988565b5b611fdd84828501611f6f565b91505092915050565b60008060408385031215611ffd57611ffc611983565b5b600061200b85828601611bd9565b925050602061201c85828601611bd9565b9150509250929050565b7f4e487b7100000000000000000000000000000000000000000000000000000000600052602260045260246000fd5b6000600282049050600182168061206d57607f821691505b6020821081036120805761207f612026565b5b50919050565b7f4552433732313a20617070726f76616c20746f2063757272656e74206f776e6560008201527f7200000000000000000000000000000000000000000000000000000000000000602082015250565b60006120e2602183611a53565b91506120ed82612086565b604082019050919050565b60006020820190508181036000830152612111816120d5565b9050919050565b7f4552433732313a20617070726f76652063616c6c6572206973206e6f7420746f60008201527f6b656e206f776e6572206e6f7220617070726f76656420666f7220616c6c0000602082015250565b6000612174603e83611a53565b915061217f82612118565b604082019050919050565b600060208201905081810360008301526121a381612167565b9050919050565b7f4552433732313a2063616c6c6572206973206e6f7420746f6b656e206f776e6560008201527f72206e6f7220617070726f766564000000000000000000000000000000000000602082015250565b6000612206602e83611a53565b9150612211826121aa565b604082019050919050565b60006020820190508181036000830152612235816121f9565b9050919050565b7f596f7520617265276e74206275726e2074686973206e66740000000000000000600082015250565b6000612272601883611a53565b915061227d8261223c565b602082019050919050565b600060208201905081810360008301526122a181612265565b9050919050565b7f4552433732313a20696e76616c696420746f6b656e2049440000000000000000600082015250565b60006122de601883611a53565b91506122e9826122a8565b602082019050919050565b6000602082019050818103600083015261230d816122d1565b9050919050565b7f4552433732313a2061646472657373207a65726f206973206e6f74206120766160008201527f6c6964206f776e65720000000000000000000000000000000000000000000000602082015250565b6000612370602983611a53565b915061237b82612314565b604082019050919050565b6000602082019050818103600083015261239f81612363565b9050919050565b600081905092915050565b60006123bc82611a48565b6123c681856123a6565b93506123d6818560208601611a64565b80840191505092915050565b60006123ee82856123b1565b91506123fa82846123b1565b91508190509392505050565b7f4552433732313a207472616e736665722066726f6d20696e636f72726563742060008201527f6f776e6572000000000000000000000000000000000000000000000000000000602082015250565b6000612462602583611a53565b915061246d82612406565b604082019050919050565b6000602082019050818103600083015261249181612455565b9050919050565b7f4552433732313a207472616e7366657220746f20746865207a65726f2061646460008201527f7265737300000000000000000000000000000000000000000000000000000000602082015250565b60006124f4602483611a53565b91506124ff82612498565b604082019050919050565b60006020820190508181036000830152612523816124e7565b9050919050565b7f4e487b7100000000000000000000000000000000000000000000000000000000600052601160045260246000fd5b600061256482611b03565b915061256f83611b03565b9250828210156125825761258161252a565b5b828203905092915050565b600061259882611b03565b91506125a383611b03565b9250827fffffffffffffffffffffffffffffffffffffffffffffffffffffffffffffffff038211156125d8576125d761252a565b5b828201905092915050565b7f4552433732313a20617070726f766520746f2063616c6c657200000000000000600082015250565b6000612619601983611a53565b9150612624826125e3565b602082019050919050565b600060208201905081810360008301526126488161260c565b9050919050565b7f4552433732313a207472616e7366657220746f206e6f6e20455243373231526560008201527f63656976657220696d706c656d656e7465720000000000000000000000000000602082015250565b60006126ab603283611a53565b91506126b68261264f565b604082019050919050565b600060208201905081810360008301526126da8161269e565b9050919050565b7f4552433732313a206d696e7420746f20746865207a65726f2061646472657373600082015250565b6000612717602083611a53565b9150612722826126e1565b602082019050919050565b600060208201905081810360008301526127468161270a565b9050919050565b7f4552433732313a20746f6b656e20616c7265616479206d696e74656400000000600082015250565b6000612783601c83611a53565b915061278e8261274d565b602082019050919050565b600060208201905081810360008301526127b281612776565b9050919050565b7f45524337323155524953746f726167653a2055524920736574206f66206e6f6e60008201527f6578697374656e7420746f6b656e000000000000000000000000000000000000602082015250565b6000612815602e83611a53565b9150612820826127b9565b604082019050919050565b6000602082019050818103600083015261284481612808565b9050919050565b60008190508160005260206000209050919050565b60006020601f8301049050919050565b600082821b905092915050565b6000600883026128ad7fffffffffffffffffffffffffffffffffffffffffffffffffffffffffffffffff82612870565b6128b78683612870565b95508019841693508086168417925050509392505050565b6000819050919050565b60006128f46128ef6128ea84611b03565b6128cf565b611b03565b9050919050565b6000819050919050565b61290e836128d9565b61292261291a826128fb565b84845461287d565b825550505050565b600090565b61293761292a565b612942818484612905565b505050565b5b818110156129665761295b60008261292f565b600181019050612948565b5050565b601f8211156129ab5761297c8161284b565b61298584612860565b81016020851015612994578190505b6129a86129a085612860565b830182612947565b50505b505050565b600082821c905092915050565b60006129ce600019846008026129b0565b1980831691505092915050565b60006129e783836129bd565b9150826002028217905092915050565b612a0082611a48565b67ffffffffffffffff811115612a1957612a18611d4e565b5b612a238254612055565b612a2e82828561296a565b600060209050601f831160018114612a615760008415612a4f578287015190505b612a5985826129db565b865550612ac1565b601f198416612a6f8661284b565b60005b82811015612a9757848901518255600182019150602085019450602081019050612a72565b86831015612ab45784890151612ab0601f8916826129bd565b8355505b6001600288020188555050505b505050505050565b600081519050919050565b600082825260208201905092915050565b6000612af082612ac9565b612afa8185612ad4565b9350612b0a818560208601611a64565b612b1381611a97565b840191505092915050565b6000608082019050612b336000830187611b98565b612b406020830186611b98565b612b4d6040830185611cae565b8181036060830152612b5f8184612ae5565b905095945050505050565b600081519050612b79816119b9565b92915050565b600060208284031215612b9557612b94611983565b5b6000612ba384828501612b6a565b91505092915050565b6000612bb782611b03565b91507fffffffffffffffffffffffffffffffffffffffffffffffffffffffffffffffff8203612be957612be861252a565b5b600182019050919050565b7f4e487b7100000000000000000000000000000000000000000000000000000000600052601260045260246000fd5b6000612c2e82611b03565b9150612c3983611b03565b925082612c4957612c48612bf4565b5b828204905092915050565b6000612c5f82611b03565b9150612c6a83611b03565b925082612c7a57612c79612bf4565b5b828206905092915050565b7f4e487b7100000000000000000000000000000000000000000000000000000000600052603260045260246000fdfea264697066735822122042fcc95eec5f6605448fff031ac782945cc6c909862168bce01a6a1ddd45005c64736f6c634300080f0033",
  "immutableReferences": {},
  "source": "// contracts/NFT.sol\n// SPDX-License-Identifier: MIT\npragma solidity ^0.8.0;\n\nimport '@openzeppelin/contracts/token/ERC721/extensions/ERC721URIStorage.sol';\nimport '@openzeppelin/contracts/utils/Counters.sol';\n\ncontract NFTContract is ERC721URIStorage {\n  using Counters for Counters.Counter;\n\n  Counters.Counter private _tokenIdCounter;\n\n  constructor() ERC721('MyNFT', 'NFT') {}\n\n  function mint(string memory _uri) public {\n    _mint(msg.sender, _tokenIdCounter.current());\n    _setTokenURI(_tokenIdCounter.current(), _uri);\n    _tokenIdCounter.increment();\n  }\n\n  function burn(uint256 _tokenId) public {\n    require(_exists(_tokenId), \"You are'nt burn this nft\");\n    _burn(_tokenId);\n  }\n}\n",
  "sourcePath": "/home/david//projects/erc721/contracts/NFTContract.sol",
  "compiler": {
    "name": "solc",
    "version": "0.8.15+commit.e14f2714.Emscripten.clang"
  },
  "schemaVersion": "3.4.8",
  "updatedAt": "2022-07-30T14:30:38.762Z",
  "networkType": "ethereum",
  "devdoc": {
    "kind": "dev",
    "methods": {
      "approve(address,uint256)": {
        "details": "See {IERC721-approve}."
      },
      "balanceOf(address)": {
        "details": "See {IERC721-balanceOf}."
      },
      "getApproved(uint256)": {
        "details": "See {IERC721-getApproved}."
      },
      "isApprovedForAll(address,address)": {
        "details": "See {IERC721-isApprovedForAll}."
      },
      "name()": {
        "details": "See {IERC721Metadata-name}."
      },
      "ownerOf(uint256)": {
        "details": "See {IERC721-ownerOf}."
      },
      "safeTransferFrom(address,address,uint256)": {
        "details": "See {IERC721-safeTransferFrom}."
      },
      "safeTransferFrom(address,address,uint256,bytes)": {
        "details": "See {IERC721-safeTransferFrom}."
      },
      "setApprovalForAll(address,bool)": {
        "details": "See {IERC721-setApprovalForAll}."
      },
      "supportsInterface(bytes4)": {
        "details": "See {IERC165-supportsInterface}."
      },
      "symbol()": {
        "details": "See {IERC721Metadata-symbol}."
      },
      "tokenURI(uint256)": {
        "details": "See {IERC721Metadata-tokenURI}."
      },
      "transferFrom(address,address,uint256)": {
        "details": "See {IERC721-transferFrom}."
      }
    },
    "version": 1
  },
  "userdoc": {
    "kind": "user",
    "methods": {},
    "version": 1
  }
}