{
  "contractName": "NFTTraider",
  "abi": [
    {
      "inputs": [],
      "stateMutability": "nonpayable",
      "type": "constructor"
    },
    {
      "anonymous": false,
      "inputs": [
        {
          "indexed": false,
          "internalType": "address",
          "name": "_tokenAddress",
          "type": "address"
        },
        {
          "indexed": false,
          "internalType": "uint256",
          "name": "_tokenId",
          "type": "uint256"
        },
        {
          "indexed": false,
          "internalType": "address",
          "name": "_buyerAddress",
          "type": "address"
        },
        {
          "indexed": false,
          "internalType": "uint256",
          "name": "price",
          "type": "uint256"
        }
      ],
      "name": "Buy",
      "type": "event"
    },
    {
      "anonymous": false,
      "inputs": [
        {
          "indexed": false,
          "internalType": "address",
          "name": "_tokenAddress",
          "type": "address"
        },
        {
          "indexed": false,
          "internalType": "uint256",
          "name": "_tokenId",
          "type": "uint256"
        },
        {
          "indexed": false,
          "internalType": "address",
          "name": "_sellerAddress",
          "type": "address"
        },
        {
          "indexed": false,
          "internalType": "uint256",
          "name": "price",
          "type": "uint256"
        }
      ],
      "name": "Sell",
      "type": "event"
    },
    {
      "inputs": [
        {
          "internalType": "address",
          "name": "_tokenAddress",
          "type": "address"
        },
        {
          "internalType": "uint256",
          "name": "_tokenId",
          "type": "uint256"
        },
        {
          "internalType": "uint256",
          "name": "_price",
          "type": "uint256"
        }
      ],
      "name": "create",
      "outputs": [],
      "stateMutability": "nonpayable",
      "type": "function"
    },
    {
      "inputs": [
        {
          "internalType": "address",
          "name": "_tokenAddress",
          "type": "address"
        },
        {
          "internalType": "uint256",
          "name": "_tokenId",
          "type": "uint256"
        }
      ],
      "name": "buy",
      "outputs": [],
      "stateMutability": "payable",
      "type": "function",
      "payable": true
    },
    {
      "inputs": [],
      "name": "getOrders",
      "outputs": [
        {
          "components": [
            {
              "internalType": "address",
              "name": "tokenAddress",
              "type": "address"
            },
            {
              "internalType": "uint256",
              "name": "tokenId",
              "type": "uint256"
            },
            {
              "internalType": "address",
              "name": "sellerAddress",
              "type": "address"
            },
            {
              "internalType": "uint256",
              "name": "price",
              "type": "uint256"
            }
          ],
          "internalType": "struct NFTTraider.Order[]",
          "name": "",
          "type": "tuple[]"
        }
      ],
      "stateMutability": "view",
      "type": "function",
      "constant": true
    }
  ],
  "bytecode": "0x608060405234801561001057600080fd5b506112f3806100206000396000f3fe6080604052600436106100345760003560e01c80632e2dc43e146100395780635165da3014610064578063cce7ec131461008d575b600080fd5b34801561004557600080fd5b5061004e6100a9565b60405161005b9190610da1565b60405180910390f35b34801561007057600080fd5b5061008b60048036038101906100869190610e20565b6104e2565b005b6100a760048036038101906100a29190610e73565b610848565b005b60606000805b6001805490508110156101da5760005b600073ffffffffffffffffffffffffffffffffffffffff16600080600185815481106100ee576100ed610eb3565b5b9060005260206000200160009054906101000a900473ffffffffffffffffffffffffffffffffffffffff1673ffffffffffffffffffffffffffffffffffffffff1673ffffffffffffffffffffffffffffffffffffffff168152602001908152602001600020600083815260200190815260200160002060020160009054906101000a900473ffffffffffffffffffffffffffffffffffffffff1673ffffffffffffffffffffffffffffffffffffffff16146101c6576001816101b09190610f11565b90506001836101bf9190610f11565b92506100bf565b5080806101d290610f67565b9150506100af565b5060008167ffffffffffffffff8111156101f7576101f6610faf565b5b60405190808252806020026020018201604052801561023057816020015b61021d610bef565b8152602001906001900390816102155790505b5090506000805b6001805490508110156104d85760005b600073ffffffffffffffffffffffffffffffffffffffff166000806001858154811061027657610275610eb3565b5b9060005260206000200160009054906101000a900473ffffffffffffffffffffffffffffffffffffffff1673ffffffffffffffffffffffffffffffffffffffff1673ffffffffffffffffffffffffffffffffffffffff168152602001908152602001600020600083815260200190815260200160002060020160009054906101000a900473ffffffffffffffffffffffffffffffffffffffff1673ffffffffffffffffffffffffffffffffffffffff16146104c4576000806001848154811061034257610341610eb3565b5b9060005260206000200160009054906101000a900473ffffffffffffffffffffffffffffffffffffffff1673ffffffffffffffffffffffffffffffffffffffff1673ffffffffffffffffffffffffffffffffffffffff16815260200190815260200160002060008281526020019081526020016000206040518060800160405290816000820160009054906101000a900473ffffffffffffffffffffffffffffffffffffffff1673ffffffffffffffffffffffffffffffffffffffff1673ffffffffffffffffffffffffffffffffffffffff168152602001600182015481526020016002820160009054906101000a900473ffffffffffffffffffffffffffffffffffffffff1673ffffffffffffffffffffffffffffffffffffffff1673ffffffffffffffffffffffffffffffffffffffff16815260200160038201548152505084848151811061049657610495610eb3565b5b60200260200101819052506001816104ae9190610f11565b90506001836104bd9190610f11565b9250610247565b5080806104d090610f67565b915050610237565b5081935050505090565b6104eb83610ae7565b600083905060008211610533576040517f08c379a000000000000000000000000000000000000000000000000000000000815260040161052a9061103b565b60405180910390fd5b8073ffffffffffffffffffffffffffffffffffffffff16636352211e846040518263ffffffff1660e01b815260040161056c919061106a565b602060405180830381865afa158015610589573d6000803e3d6000fd5b505050506040513d601f19601f820116820180604052508101906105ad919061109a565b73ffffffffffffffffffffffffffffffffffffffff163373ffffffffffffffffffffffffffffffffffffffff161461061a576040517f08c379a000000000000000000000000000000000000000000000000000000000815260040161061190611113565b60405180910390fd5b8073ffffffffffffffffffffffffffffffffffffffff1663081812fc846040518263ffffffff1660e01b8152600401610653919061106a565b602060405180830381865afa158015610670573d6000803e3d6000fd5b505050506040513d601f19601f82011682018060405250810190610694919061109a565b73ffffffffffffffffffffffffffffffffffffffff163073ffffffffffffffffffffffffffffffffffffffff1614610701576040517f08c379a00000000000000000000000000000000000000000000000000000000081526004016106f89061117f565b60405180910390fd5b60405180608001604052808573ffffffffffffffffffffffffffffffffffffffff1681526020018481526020013373ffffffffffffffffffffffffffffffffffffffff168152602001838152506000808673ffffffffffffffffffffffffffffffffffffffff1673ffffffffffffffffffffffffffffffffffffffff168152602001908152602001600020600085815260200190815260200160002060008201518160000160006101000a81548173ffffffffffffffffffffffffffffffffffffffff021916908373ffffffffffffffffffffffffffffffffffffffff1602179055506020820151816001015560408201518160020160006101000a81548173ffffffffffffffffffffffffffffffffffffffff021916908373ffffffffffffffffffffffffffffffffffffffff1602179055506060820151816003015590505050505050565b600082905060008060008573ffffffffffffffffffffffffffffffffffffffff1673ffffffffffffffffffffffffffffffffffffffff16815260200190815260200160002060008481526020019081526020016000206040518060800160405290816000820160009054906101000a900473ffffffffffffffffffffffffffffffffffffffff1673ffffffffffffffffffffffffffffffffffffffff1673ffffffffffffffffffffffffffffffffffffffff168152602001600182015481526020016002820160009054906101000a900473ffffffffffffffffffffffffffffffffffffffff1673ffffffffffffffffffffffffffffffffffffffff1673ffffffffffffffffffffffffffffffffffffffff1681526020016003820154815250509050806060015134146109b1576040517f08c379a00000000000000000000000000000000000000000000000000000000081526004016109a8906111eb565b60405180910390fd5b806040015173ffffffffffffffffffffffffffffffffffffffff163373ffffffffffffffffffffffffffffffffffffffff1603610a23576040517f08c379a0000000000000000000000000000000000000000000000000000000008152600401610a1a90611257565b60405180910390fd5b806040015173ffffffffffffffffffffffffffffffffffffffff166108fc349081150290604051600060405180830381858888f19350505050158015610a6d573d6000803e3d6000fd5b508173ffffffffffffffffffffffffffffffffffffffff166323b872dd826040015133866040518463ffffffff1660e01b8152600401610aaf93929190611286565b600060405180830381600087803b158015610ac957600080fd5b505af1158015610add573d6000803e3d6000fd5b5050505050505050565b6000805b600180549050811015610b81578273ffffffffffffffffffffffffffffffffffffffff1660018281548110610b2357610b22610eb3565b5b9060005260206000200160009054906101000a900473ffffffffffffffffffffffffffffffffffffffff1673ffffffffffffffffffffffffffffffffffffffff1603610b6e57600191505b8080610b7990610f67565b915050610aeb565b5080610beb576001829080600181540180825580915050600190039060005260206000200160009091909190916101000a81548173ffffffffffffffffffffffffffffffffffffffff021916908373ffffffffffffffffffffffffffffffffffffffff1602179055505b5050565b6040518060800160405280600073ffffffffffffffffffffffffffffffffffffffff16815260200160008152602001600073ffffffffffffffffffffffffffffffffffffffff168152602001600081525090565b600081519050919050565b600082825260208201905092915050565b6000819050602082019050919050565b600073ffffffffffffffffffffffffffffffffffffffff82169050919050565b6000610c9a82610c6f565b9050919050565b610caa81610c8f565b82525050565b6000819050919050565b610cc381610cb0565b82525050565b608082016000820151610cdf6000850182610ca1565b506020820151610cf26020850182610cba565b506040820151610d056040850182610ca1565b506060820151610d186060850182610cba565b50505050565b6000610d2a8383610cc9565b60808301905092915050565b6000602082019050919050565b6000610d4e82610c43565b610d588185610c4e565b9350610d6383610c5f565b8060005b83811015610d94578151610d7b8882610d1e565b9750610d8683610d36565b925050600181019050610d67565b5085935050505092915050565b60006020820190508181036000830152610dbb8184610d43565b905092915050565b600080fd5b610dd181610c8f565b8114610ddc57600080fd5b50565b600081359050610dee81610dc8565b92915050565b610dfd81610cb0565b8114610e0857600080fd5b50565b600081359050610e1a81610df4565b92915050565b600080600060608486031215610e3957610e38610dc3565b5b6000610e4786828701610ddf565b9350506020610e5886828701610e0b565b9250506040610e6986828701610e0b565b9150509250925092565b60008060408385031215610e8a57610e89610dc3565b5b6000610e9885828601610ddf565b9250506020610ea985828601610e0b565b9150509250929050565b7f4e487b7100000000000000000000000000000000000000000000000000000000600052603260045260246000fd5b7f4e487b7100000000000000000000000000000000000000000000000000000000600052601160045260246000fd5b6000610f1c82610cb0565b9150610f2783610cb0565b9250827fffffffffffffffffffffffffffffffffffffffffffffffffffffffffffffffff03821115610f5c57610f5b610ee2565b5b828201905092915050565b6000610f7282610cb0565b91507fffffffffffffffffffffffffffffffffffffffffffffffffffffffffffffffff8203610fa457610fa3610ee2565b5b600182019050919050565b7f4e487b7100000000000000000000000000000000000000000000000000000000600052604160045260246000fd5b600082825260208201905092915050565b7f5072696365206d7573742062652061626f7665207a65726f0000000000000000600082015250565b6000611025601883610fde565b915061103082610fef565b602082019050919050565b6000602082019050818103600083015261105481611018565b9050919050565b61106481610cb0565b82525050565b600060208201905061107f600083018461105b565b92915050565b60008151905061109481610dc8565b92915050565b6000602082840312156110b0576110af610dc3565b5b60006110be84828501611085565b91505092915050565b7f596f7520617265606e74206f776e65722063757272656e6379206e6674000000600082015250565b60006110fd601d83610fde565b9150611108826110c7565b602082019050919050565b6000602082019050818103600083015261112c816110f0565b9050919050565b7f596f75206d75737420617070726f76652063757272656e74206e667400000000600082015250565b6000611169601c83610fde565b915061117482611133565b602082019050919050565b600060208201905081810360008301526111988161115c565b9050919050565b7f496e76616c696420707269636500000000000000000000000000000000000000600082015250565b60006111d5600d83610fde565b91506111e08261119f565b602082019050919050565b60006020820190508181036000830152611204816111c8565b9050919050565b7f596f75206d7573742062757920796f7572206e66740000000000000000000000600082015250565b6000611241601583610fde565b915061124c8261120b565b602082019050919050565b6000602082019050818103600083015261127081611234565b9050919050565b61128081610c8f565b82525050565b600060608201905061129b6000830186611277565b6112a86020830185611277565b6112b5604083018461105b565b94935050505056fea26469706673582212208d0b4fe600ee423d9c9359091342ae8b4d6734e6c0081938956a34bd25de21cc64736f6c634300080f0033",
  "immutableReferences": {},
  "source": "// contracts/NFT.sol\n// SPDX-License-Identifier: MIT\npragma solidity ^0.8.0;\n\nimport '@openzeppelin/contracts/token/ERC721/ERC721.sol';\n\ncontract NFTTraider {\n  struct Order {\n    address tokenAddress;\n    uint256 tokenId;\n    address sellerAddress;\n    uint256 price;\n  }\n\n  mapping(address => mapping(uint256 => Order)) _orders;\n\n  address[] _addreses;\n\n  constructor() {}\n\n  event Sell(\n    address _tokenAddress,\n    uint256 _tokenId,\n    address _sellerAddress,\n    uint256 price\n  );\n  event Buy(\n    address _tokenAddress,\n    uint256 _tokenId,\n    address _buyerAddress,\n    uint256 price\n  );\n\n  function setAddress(address _address) private {\n    bool has_address = false;\n    for (uint256 index = 0; index < _addreses.length; index++) {\n      if (_addreses[index] == _address) has_address = true;\n    }\n    if (!has_address) _addreses.push(_address);\n  }\n\n  function create(\n    address _tokenAddress,\n    uint256 _tokenId,\n    uint256 _price\n  ) public {\n    setAddress(_tokenAddress);\n    ERC721 _contract = ERC721(_tokenAddress);\n\n    require(_price > 0, 'Price must be above zero');\n    require(\n      msg.sender == _contract.ownerOf(_tokenId),\n      'You are`nt owner currency nft'\n    );\n    require(\n      address(this) == _contract.getApproved(_tokenId),\n      'You must approve current nft'\n    );\n\n    _orders[_tokenAddress][_tokenId] = Order(\n      _tokenAddress,\n      _tokenId,\n      msg.sender,\n      _price\n    );\n  }\n\n  function buy(address _tokenAddress, uint256 _tokenId) public payable {\n    ERC721 _contract = ERC721(_tokenAddress);\n    Order memory order = _orders[_tokenAddress][_tokenId];\n\n    require(msg.value == order.price, 'Invalid price');\n    require(msg.sender != order.sellerAddress, 'You must buy your nft');\n\n    payable(order.sellerAddress).transfer(msg.value);\n\n    _contract.transferFrom(order.sellerAddress, msg.sender, _tokenId);\n  }\n\n  function getOrders() public view returns (Order[] memory) {\n    uint256 size = 0;\n    for (uint256 _addr = 0; _addr < _addreses.length; _addr++) {\n      uint256 local_index = 0;\n      while (\n        _orders[_addreses[_addr]][local_index].sellerAddress != address(0)\n      ) {\n        local_index = local_index + 1;\n        size = size + 1;\n      }\n    }\n\n    Order[] memory orders = new Order[](size);\n    uint256 order_index = 0;\n\n    for (uint256 _addr = 0; _addr < _addreses.length; _addr++) {\n      uint256 local_index = 0;\n      while (\n        _orders[_addreses[_addr]][local_index].sellerAddress != address(0)\n      ) {\n        orders[order_index] = _orders[_addreses[_addr]][local_index];\n        local_index = local_index + 1;\n        order_index = order_index + 1;\n      }\n    }\n    return orders;\n  }\n}\n",
  "sourcePath": "/home/david//projects/erc721/contracts/NFTTraider.sol",
  "compiler": {
    "name": "solc",
    "version": "0.8.15+commit.e14f2714.Emscripten.clang"
  },
  "schemaVersion": "3.4.8",
  "updatedAt": "2022-07-30T14:30:39.124Z",
  "networkType": "ethereum",
  "devdoc": {
    "kind": "dev",
    "methods": {},
    "version": 1
  },
  "userdoc": {
    "kind": "user",
    "methods": {},
    "version": 1
  }
}